:100000000C94FA000C9422010C9422010C9422010D
:100010000C9422010C9422010C9422010C942201D4
:100020000C9422010C9422010C9476070C94E8079E
:100030000C9422010C9422010C9422010C942201B4
:100040000C9422010C94C5030C9422010C942201FF
:100050000C9422010C9422010C9422010C94700344
:100060000C9422010C9422010C9422010C94220184
:100070000C9422010C9422010C9422010C94220174
:100080000C9422010C9422010C9422010C94220164
:100090000C9422010C9422010C9422010C94220154
:1000A0000C9422010C9422010C942201FC02FF0208
:1000B000EE02F202F60220032003200303030703EB
:1000C0000B031103150320031B03084AD73B3BCE48
:1000D000016E84BCBFFDC12F3D6C74319ABD568347
:1000E0003DDA3D00C77F11BED9E4BB4C3E916BAAFF
:1000F000AABE000000803F0000000000250028008C
:100100002B002E0031000000000200090F00000348
:100110000401000C000000000000000000000000CE
:10012000000000000000000000240027002A002D2D
:100130000030000408020110408040102040804040
:10014000800802040180402010020110801020402D
:100150004020040404040403040502020202040310
:100160000202020206060606060604040202020451
:1001700004080B000202020100090400000102024F
:1001800000000524001001052401010104240206D9
:100190000524060001070581031000400904010041
:1001A000020A000000070502024000000705830262
:1001B0004000000403090412010002EF0201404163
:1001C00023368000010102030141726475696E6F7C
:1001D000204C4C430041726475696E6F204C656F12
:1001E0006E6172646F00070605040100080A0B0CBB
:1001F0000D09071311241FBECFEFDAE0DEBFCDBF1C
:1002000012E0A0E0B1E0E4E1FDE202C005900D9251
:10021000A037B107D9F723E0A0E7B2E001C01D92F3
:10022000A138B207E1F710E0CAEFD0E004C021978F
:10023000FE010E947D16C93FD107C9F70E94A90C93
:100240000C9488160C940000CF92DF92EF92FF92EC
:100250000F931F93CF93DF936C017A018B01C0E062
:10026000D0E0CE15DF0589F0D8016D918D01D60162
:10027000ED91FC910190F081E02DC6010995892B4B
:1002800011F47E0102C02196ECCFC701DF91CF911E
:100290001F910F91FF90EF90DF90CF900895CF9333
:1002A000DF931F92CDB7DEB76983DC01ED91FC913E
:1002B0000280F381E02D41E050E0BE016F5F7F4F8F
:1002C00009950F90DF91CF91089583E08093E90025
:1002D0008091F200882319F08AE38093E800089562
:1002E000FC018485958597FD0BC09FB7F89482E04B
:1002F0008093E9008091F2009FBF90E001960895FD
:100300009FB7F89482E08093E9008091F2009FBF4C
:1003100090E00895089580E090E008953FB7F89444
:100320008091760290917702A0917802B091790243
:1003300026B5A89B05C02F3F19F00196A11DB11D40
:100340003FBFBA2FA92F982F8827820F911DA11D7B
:10035000B11DBC01CD0142E0660F771F881F991FB8
:100360004A95D1F708958F929F92AF92BF92CF9204
:10037000DF92EF92FF926B017C010E948E014B0194
:100380005C01C114D104E104F104F1F00E948E017A
:10039000DC01CB0188199909AA09BB09883E934061
:1003A000A105B10570F321E0C21AD108E108F108F6
:1003B00088EE880E83E0981EA11CB11CC114D104E4
:1003C000E104F10419F7DDCFFF90EF90DF90CF90BB
:1003D000BF90AF909F908F9008952FB7F894609141
:1003E00072027091730280917402909175022FBF16
:1003F00008958F929F92AF92BF92CF92DF92EF9229
:10040000FF920F931F93CF93DF935C016B017A01EF
:1004100080910B01882309F45BC08091AE02882390
:1004200009F456C08091AB0280FF05C08091E000C6
:1004300082608093E000E70110E00AEF83E0882EFD
:100440009AE3992E2097D9F10E94650781110AC07D
:10045000015009F43DC061E070E080E090E00E944E
:10046000B301F0CF282F30E0C217D3070CF48C2F44
:100470004FB7F8948092E9009091E80095FF1DC075
:10048000282F30E0C21BD30BF601982F915020F09B
:1004900081918093F100FACFC20ED31E112319F07F
:1004A0009092E80009C08091E80085FD06C0909216
:1004B000E80011E0209709F010E04FBFC3CF111101
:1004C000C3CF5D9884E68093AC021E141F0444F0F1
:1004D00081E090E0F5019383828380E090E001C0A9
:1004E000C701DF91CF911F910F91FF90EF90DF90A7
:1004F000CF90BF90AF909F908F9008950E94650716
:1005000090E008950F931F93CF93DF931F92CDB781
:10051000DEB78C01FC018485958597FF0EC0CE0166
:1005200001960E943B07019719F4298130E002C02F
:100530002FEF3FEFF80135872487F80184859585F3
:100540000F90DF91CF911F910F910895CF93DF937B
:100550001F92CDB7DEB7FC018485958597FD05C058
:100560002FEF3FEF358724870BC0CE0101960E9405
:100570003B07019719F4898190E002C08FEF9FEF4C
:100580000F90DF91CF910895615030F02091F100EC
:10059000FC0120830196F8CF289884E68093AD0271
:1005A0000895362F90E0FC01EA5FFE4F4491FC0174
:1005B000ED5CFE4F2491FC01EE5AFE4F849188239E
:1005C00009F451C04423E1F150E0FA013197EF30D2
:1005D000F105B0F5EA5AFF4F0C947D16909180001A
:1005E0009F7707C0909180009F7D03C0909180000D
:1005F000977F9093800024C094B59F7702C094B5F4
:100600009F7D94BD1DC0909190009F7707C09091F1
:1006100090009F7D03C090919000977F90939000F1
:100620000FC09091C0009F7703C09091C0009F7D44
:100630009093C00005C09091C200977F9093C20034
:10064000E82FF0E0EE0FFF1FE850FF4FA591B491A7
:100650008FB7F894EC91311103C020952E2301C07F
:100660002E2B2C938FBF0895CF93DF9390E0FC0146
:10067000ED5CFE4F2491FC01EE5AFE4F84918823DD
:1006800061F190E0880F991FFC01EB5DFE4FC59171
:10069000D491FC01E850FF4FA591B491611109C0BC
:1006A0009FB7F8948881209582238883EC912E232C
:1006B0000BC0623061F49FB7F8943881822F809527
:1006C00083238883EC912E2B2C939FBF06C08FB77A
:1006D000F894E8812E2B28838FBFDF91CF91089566
:1006E0001F920F920FB60F9211242F933F938F9367
:1006F0009F93AF93BF938091720290917302A091E8
:100700007402B09175023091710223E0230F2D37EE
:1007100020F40196A11DB11D05C026E8230F029605
:10072000A11DB11D209371028093720290937302F8
:10073000A0937402B0937502809176029091770233
:10074000A0917802B09179020196A11DB11D80930C
:10075000760290937702A0937802B0937902BF91CA
:10076000AF919F918F913F912F910F900FBE0F905E
:100770001F90189508958EBD00000DB407FEFDCFA3
:100780008EB508958CBD9DBD08951F920F920FB632
:100790000F9211242F933F934F935F936F937F9307
:1007A0008F939F93AF93BF93EF93FF9380917002CA
:1007B00087FF05C010928500109284001BC0209115
:1007C0007002022E000C330B8091330390E0281747
:1007D000390784F480917002082E000C990BFC01FB
:1007E000EE0FFF1F8E0F9F1FFC01E15FFC4F80810A
:1007F00086FD15C0809170028F5F809370022091FA
:100800007002022E000C330B8091330390E0281706
:100810003907C4F4809170028C3064F113C0809168
:100820007002082E000C990BFC01EE0FFF1F8E0FBB
:100830009F1FFC01E15FFC4F808160E08F730E948D
:10084000D102D8CF809184009091850004968034A5
:100850009C4918F480E49CE905C080918400909143
:100860008500049690938900809388008FEF809391
:1008700070023BC02091840030918500809170020D
:10088000082E000C990BFC01EE0FFF1F8E0F9F1F0F
:10089000FC01E15FFC4F81819281820F931F909355
:1008A00089008093880080917002082E000C990BBB
:1008B000FC01EE0FFF1F8E0F9F1FFC01E15FFC4F3D
:1008C000808186FF12C080917002082E000C990B67
:1008D000FC01EE0FFF1F8E0F9F1FFC01E15FFC4F1D
:1008E000808161E08F730E94D102FF91EF91BF91EF
:1008F000AF919F918F917F916F915F914F913F91B8
:100900002F910F900FBE0F901F9018958091B702F6
:1009100081110DC082E08093B30284E08093B40221
:100920001092B6021092B50281E08093B70283EB79
:1009300092E008954091B1025091B2022091AF022D
:100940003091B00242175307B4F49091E8009570CB
:10095000E1F39091E80092FD19C08093F10080913D
:10096000B1029091B20201968F739927892B19F4E5
:100970008EEF8093E8008091B1029091B2020196CF
:100980009093B2028093B10281E0089580E00895CF
:10099000CF92DF92EF92FF920F931F93CF93DF934B
:1009A0001F92CDB7DEB7182F062FE42E862F880FA3
:1009B0008E5F99830E949A0483E00E949A04F12E2C
:1009C000C12E9981D92E8C2D8F19801798F4F6019C
:1009D000E7FE02C0849101C080810E949A04182F12
:1009E00080E00E949A048123FFEFCF1ADF0A811171
:1009F000EACF01C081E00F90DF91CF911F910F915D
:100A0000FF90EF90DF90CF900895DF92EF92FF92EA
:100A10000F931F93CF93DF93D82E8A017B01E40EAF
:100A2000F51EEB01CE15DF0571F0D7FE03C0FE0108
:100A3000849101C088810E949A0421968111F2CF8D
:100A40008FEF9FEF01C0C801DF91CF911F910F91F0
:100A5000FF90EF90DF9008950F931F93CF93DF9354
:100A60001F92CDB7DEB782E0898342E450E061E7B0
:100A700071E080E80E9405050E948604DC01129660
:100A80000D911C9113970115110569F0D801ED9195
:100A9000FC910280F381E02DBE016F5F7F4FC801A2
:100AA000099597FF07C089810F90DF91CF911F9122
:100AB0000F910895F80100851185E5CF0E948316F6
:100AC0002F923F924F925F926F927F928F929F925E
:100AD000AF92BF92CF92DF92EF92FF920F931F934C
:100AE000CF93DF9300D000D01F92CDB7DEB76B015C
:100AF0007C01742E322E232E60937703709378033B
:100B00008093790390937A031092760310927B037B
:100B100000E010E053E0A52EB12C69E1462E61E023
:100B2000562E73E2872E912C0E948A0C8475843590
:100B300089F190917F03A501491B5109E9E1F1E099
:100B40006E2F6419262F30E0241735071CF563300B
:100B500010F4908101C09FEF982331969111F0CF4E
:100B6000633028F4F901EA5EFE4F808101C080E520
:100B700066246394680E633028F4F901ED5EFE4F3D
:100B8000608101C060E040E08CE29D830E94BC0A6D
:100B90009D8102C0612C92E00F5F1F4F923061F483
:100BA0000233110509F499C00115110509F4BCCFF0
:100BB000C4010197F1F7B8CF0233110509F48DC0D4
:100BC00081E4681641F0E1E56E1639F0F1E36F1645
:100BD00031F010E005C012E403C014E401C010E4D9
:100BE000C60123E0969587952A95E1F78983C294FB
:100BF000CC0C30EEC322CA821C821B8280E591E0BD
:100C00000E94C20360E080917C030E94D102812F88
:100C10000E94BB038E010F5F1F4F44E0F42EF00EC5
:100C2000F80181918F010E94BB03F012F9CF872D4B
:100C30000E94BB03E32CF22C10E0171549F018308A
:100C400039F0F70181917F010E94BB031F5FF5CF4F
:100C500061E080917C030E94D1020E94BA0380E58A
:100C600091E00E94C20360E080917C030E94D10267
:100C7000F1E46F1661F081E5681629F0E1E36E1288
:100C800004C081E805C084E803C080E001C082E8B8
:100C90000E94BB0361E080917C030E94D1020E940C
:100CA000BA0300E010E06A9483E2E82EF12C0F5FB3
:100CB0001F4F862D0E94990A83FF0AC00233110537
:100CC00071F00115110599F3C7010197F1F7EFCF05
:100CD0000233110521F080E003C086E001C087E007
:100CE0000F900F900F900F900F90DF91CF911F9169
:100CF0000F91FF90EF90DF90CF90BF90AF909F90BB
:100D00008F907F906F905F904F903F902F900895BD
:100D10005F926F927F928F929F92AF92BF92CF928B
:100D2000DF92EF92FF920F931F93CF93DF9300D048
:100D300000D0CDB7DEB7782E6B015A01490160E0D3
:100D400080917C030E94D102872D0E94BB03CE01BB
:100D500001963C01E4E05E2E580E80E00E94BB0349
:100D6000F30181933F015E12F8CF2C8123FB88278A
:100D700080F9F40180833A814981832F90E075E006
:100D8000959587957A95E1F7F8E04F9F800D911D35
:100D90001124092E000CAA0BBB0BF6018083918352
:100DA000A283B38333FF38C080819181A281B38154
:100DB00042E0880F991FAA1FBB1F4A95D1F73370D5
:100DC000830F911DA11DB11D80839183A283B383E5
:100DD00080819181A281B381BA2FA92F982F882772
:100DE0003B81830F911DA11DB11D80839183A2833F
:100DF000B38380819181A281B381BA2FA92F982FCB
:100E00008827820F911DA11DB11D80839183A2832C
:100E1000B38381E0F501808380E00E94BB038F7083
:100E2000F80180836701F12CF8018081F81658F4ED
:100E3000F8E0FF1641F080E00E94BB03F6018193C9
:100E40006F01F394F1CF61E080917C030F900F90DC
:100E50000F900F90DF91CF911F910F91FF90EF9026
:100E6000DF90CF90BF90AF909F908F907F906F90CA
:100E70005F900C94D102FC018091AE02811103C0FD
:100E80008FEF9FEF08959FB7F89482E08093E90079
:100E90002091F20030E01216130614F421E030E045
:100EA0002115310559F0289884E68093AD02809190
:100EB000F10080838091F200882319F09FBFC9015F
:100EC00008958BE68093E800F9CF2FB7F89483E07C
:100ED0008093E9009091E800892F807295FF04C00B
:100EE0009091F20080E4891B2FBF08951F920F920A
:100EF0000FB60F9211248F939F938091E1009091F0
:100F0000E100937F9093E10083FF0FC01092E9000E
:100F100091E09093EB001092EC0092E39093ED003F
:100F20001092AE0298E09093F00082FF20C093E010
:100F30009093E9009091F200992319F09AE390932D
:100F4000E8009091AC02992339F09091AC02915055
:100F50009093AC02992389F19091AD02992339F0D5
:100F60009091AD0291509093AD02992341F184FF8D
:100F700010C08091E2008E7E81608093E2008091BB
:100F8000E1008F7E8093E1008091AB028E7E8061D4
:100F900011C080FF16C08091E2008E7E8061809338
:100FA000E2008091E1008E7E8093E1008091AB02AF
:100FB0008E7E81608093AB0204C05D9ACDCF289A6B
:100FC000D6CF9F918F910F900FBE0F901F901895C5
:100FD0001F920F920FB60F921124CF92DF92EF92D1
:100FE000FF920F931F932F933F934F935F936F93B2
:100FF0007F938F939F93AF93BF93EF93FF93CF9381
:10100000DF93CDB7DEB76C97DEBFCDBF1092E9009E
:101010008091E80083FFEDC168E0CE0145960E9413
:10102000C40282EF8093E8008D8987FF05C090910C
:10103000E80090FFFCCF03C09EEF9093E800982F4C
:10104000907609F0C6C09E892F89188D91110CC029
:10105000803829F48091AA028093F10002C0109296
:10106000F1001092F10048C1422F50E0512B913015
:1010700051F4811141C14130510509F03DC18091C8
:10108000AA028D7F0BC0933061F4811135C14130CC
:10109000510509F031C18091AA0282608093AA02B1
:1010A0002BC1953041F48091E80080FFFCCF20688F
:1010B0002093E30021C1963009F05FC0EB8CFC8CDB
:1010C0001092E9001092B2021092B102123091F522
:1010D0001092B0021092AF020E942C0599E0BE015E
:1010E0006F5F7F4FDB01E92F1D92EA95E9F7998346
:1010F0001A8391E09E8390EA98879AEF99872091CE
:10110000B1023091B202275F3F4F3C832B838D8326
:101110001092E9001092B2021092B102F092B00265
:10112000E092AF0249E050E080E00E9405050E9495
:101130002C05E2C0F092B002E092AF020E94860459
:10114000DC011296ED90FC901397E114F10409F480
:10115000C0C0D701ED91FC910480F581E02DBE0166
:101160006B5E7F4FC7010995009719F00CF0C4C062
:10117000C7C0F701E084F184E8CF973009F4C0C01C
:10118000983021F481E08093F100B6C0993009F0E5
:10119000B3C0837009F0B4C0EDE0F1E081E021E07C
:1011A00036E39081992361F08093E9002093EB006E
:1011B00091919093EC003093ED008F5F873089F729
:1011C0008EE78093EA001092EA008F898093AE0246
:1011D00093C08B8D9C8D1092E9001092B2021092F8
:1011E000B1029093B0028093AF02898D811156C0F5
:1011F0008E899D89913A59F4813209F081C047E086
:1012000050E064E071E080E00E94050575C0913215
:1012100009F076C0833289F4888D90E0982F882772
:101220002F89822BA0E0B0E0809300019093010110
:10123000A0930201B09303015FC0803269F48091F2
:10124000E80082FFFCCF67E084E091E00E94C402E6
:101250008BEF8093E80006C0823209F04DC08F8981
:1012600080930B018091A902882319F0EEEFFAE038
:1012700002C0E0E0F8E08091040190910501A091A6
:101280000601B0910701803B9440A105B10509F02A
:101290007BC080910B0180FF93C076C00E948604C2
:1012A000DC0112960D911C9113970115110541F166
:1012B000D801ED91FC910190F081E02DBE016B5EB3
:1012C0007F4FC8010995811117C0F801008511856C
:1012D000ECCF113009F44EC0133091F48F8988237C
:1012E00009F445C0823081F440E860E185ED91E089
:1012F0000E94C804882321F08EEF8093E80079C013
:1013000081E28093EB0075C0813029F440E86BE006
:1013100089EC91E0EDCF833099F70E948604DC01DF
:101320001296ED90FC9013978E010F5F1F4F68018E
:10133000E114F10479F0D701ED91FC910680F78179
:10134000E02DB801C7010995080F111DF701E084D0
:10135000F184EECFD8011C92F60101900020E9F74C
:101360003197BF016C197D0940E0C601C1CF63EB25
:1013700071E002C067EB71E06115710509F2FB01D4
:10138000449150E080E840CF0FB6F894A895809142
:101390006000886180936000109260000FBEA89585
:1013A000EE3F2AE0F20739F08091FE0A9091FF0AA1
:1013B00091838083A1CF1092FF0A1092FE0A9CCFE6
:1013C000EE3F8AE0F80731F0808191819093FF0A27
:1013D0008093FE0A87E797E7918380839BE088E10B
:1013E0000FB6F894A895809360000FBE90936000AC
:1013F00083CF6C960FB6F894DEBF0FBECDBFDF91E2
:10140000CF91FF91EF91BF91AF919F918F917F917C
:101410006F915F914F913F912F911F910F91FF908D
:10142000EF90DF90CF900F900FBE0F901F90189508
:10143000BC01009791F0FC0101900020E9F7319781
:10144000AF01481B590BE091BF02F091C00202802E
:10145000F381E02D8FEB92E0099480E090E0089515
:10146000CF93DF930E94180AEC0189E991E00E9472
:10147000180A8C0F9D1FDF91CF910895809134033E
:101480008C3008F051C061E089E00E943403809103
:101490003403E82FF0E09F01220F331FE20FF31F08
:1014A000E15FFC4F9081907C9960908310923503AE
:1014B000109236036CE00E9471169CE0899FB00187
:1014C000112440E050E09A01260F371FF901EE0F7A
:1014D000FF1F2E0F3F1FF901E15FFC4F908196FD2A
:1014E00016C04F5F5F4F4C30510569F781110FC037
:1014F0001092800082E0809381001092850010920B
:101500008400B19A80916F00826080936F00E091B7
:101510003403F0E0CF01880F991FE80FF91FE15F56
:10152000FC4F8081806480838091340308950C9403
:10153000180A1F93CF93DF93182F80E591E00E9444
:10154000C203C6E7D3E060E08E810E94D10283E04F
:101550000E94BB03812F0E94BB0380E00E94BB035B
:10156000182F61E08E810E94D1020E94BA03812F60
:10157000DF91CF911F910895EF92FF920F931F93E8
:10158000CF93DF931F92CDB7DEB7082F162F80E5DC
:1015900091E049830E94C20386E7E82E83E0F82E9B
:1015A00060E0F70186810E94D10285E00E94BB03C2
:1015B000802F0E94BB03812F0E94BB034981842F8F
:1015C0000E94BB0361E0F70186810E94D1020F9067
:1015D000DF91CF911F910F91FF90EF900C94BA0380
:1015E000CF93C82F482F60EE8FE00E94BC0A8FE097
:1015F0000E94990A807E91E08C1301C090E0892FAF
:10160000CF9108950F931F93CF93DF93082F162F39
:1016100080E591E00E94C203C6E7D3E060E08E81DE
:101620000E94D10282E00E94BB03802F0E94BB0374
:10163000812F0E94BB0361E08E810E94D102DF9165
:10164000CF911F910F910C94BA038F929F92AF92FA
:10165000BF920F931F93CF93DF93CDB7DEB7A197C0
:101660000FB6F894DEBF0FBECDBF19A2423008F40A
:101670004AE08E010F5D1F4F842E912CA12CB12CBE
:10168000A50194010E94AA13E62FB901CA010150D5
:101690001109EA3014F4E05D01C0E95CD801EC9373
:1016A000232B242B252B61F7C8010E94180AA19631
:1016B0000FB6F894DEBF0FBECDBFDF91CF911F9163
:1016C0000F91BF90AF909F908F900895E091BF02CF
:1016D000F091C0020190F081E02D682F8FEB92E035
:1016E0000994CF92DF92EF92FF92CF93DF936C0138
:1016F000990FEE08FF08F7FE17C08DE20E94660BF7
:10170000EC0166277727CB016C197D098E099F09AB
:101710004AE00E94250B8C0F9D1FDF91CF91FF9017
:10172000EF90DF90CF9008954AE0C701B601DF91B6
:10173000CF91FF90EF90DF90CF900C94250B8F927C
:101740009F92AF92BF92CF92DF92EF92FF92CF9390
:10175000DF936B017C019B01AC010E946C16882316
:1017600019F084E692E027C046015701E894B7F8E3
:101770002FEF3FEF4FE75FE7C501B4010E946C1602
:1017800081110DC02FEF3FEF4FE75FE7C501B401B7
:101790000E94681418161CF488E692E00CC02FEF23
:1017A0003FEF4FE75FE4C701B6010E94EE15181640
:1017B00074F48CE692E0DF91CF91FF90EF90DF9090
:1017C000CF90BF90AF909F908F900C94180A2FEFFE
:1017D0003FEF4FE75FECC701B6010E94681487FD39
:1017E000E8CF20E030E0A901C701B6010E946814EB
:1017F00087FF09C08DE20E94660BEC01F7FAF094B6
:10180000F7F8F09402C0C0E0D0E02AE037ED43EAF8
:101810005BE3C701B6010E94CD134B015C010E943E
:10182000E6146B017C010E9415159B01AC01C501FA
:10183000B4010E94CC134B015C014AE0C701B60120
:101840000E94250BC80FD91F8EE20E94660BC80F9D
:10185000D91F20E030E040E251E4C501B4010E940C
:10186000FB154B015C010E94E6146B01E12CF12C8D
:101870004AE0C701B6010E94250BC80FD91FC70156
:10188000B6010E9415159B01AC01C501B4010E946F
:10189000CC1320E030E040E251E40E94FB150E94AE
:1018A000E61480E090E04AE00E94250B8C0F9D1F1B
:1018B000DF91CF91FF90EF90DF90CF90BF90AF90EE
:1018C0009F908F900895E6EEF1E0E49120917B00E7
:1018D000E3FB882780F990E035E0880F991F3A955F
:1018E000E1F7922F9F7D892B80937B00E770E06466
:1018F000E0937C0080917A00806480937A008091EC
:101900007A0086FDFCCF809178002091790090E0EC
:10191000922B08951F93CF93DF9380E591E00E946F
:10192000C203C6E7D3E060E08E810E94D10280EA64
:101930000E94BB0380E00E94BB03182F61E08E81F0
:101940000E94D1020E94BA03812FDF91CF911F9193
:101950000895CF93DF93CDB7DEB765970FB6F894B0
:10196000DEBF0FBECDBF789484B5826084BD84B5E0
:10197000816084BD85B5826085BD85B5816085BD8A
:1019800080916E00816080936E0010928100809142
:1019900081008260809381008091810081608093CA
:1019A000810080918000816080938000809191000F
:1019B000826080939100809191008160809391007A
:1019C000809190008160809390008091C10084603C
:1019D0008093C1008091C10082608093C10080919A
:1019E000C10081608093C1008091C30081608093B9
:1019F000C3008091C00082608093C0008091C200CB
:101A000081608093C20080917A00846080937A0024
:101A100080917A00826080937A0080917A00816060
:101A200080937A0080917A00806880937A00109287
:101A3000AE021092AA021092AB028091D700816090
:101A40008093D70080EA8093D80089B5806189BDF2
:101A500089B5826089BD09B400FEFDCF61E070E008
:101A600080E090E00E94B3018091D8008F7C80617B
:101A70008093D8008091E000807F8093E000809187
:101A8000E1008E7E8093E1008DE08093E200559A24
:101A9000209AEEEFFFE7859194918B3F9C4D19F4CE
:101AA00081E08093A9028FEF9FEF9093CC02809307
:101AB000CB028EE291E00E94300A8BE491E00E941A
:101AC000970A1FB7F89480917A02811127C0E3E644
:101AD000F1E08491E4E4F1E09491E82FF0E0EE0F7E
:101AE000FF1FEB5DFE4FA591B491EC91E92321F42A
:101AF00061E081E10E94D10261E081E10E94340352
:101B00008CB580618CBD8CB580648CBD61E08FE04C
:101B10000E94340361E080E10E94340380917A02E4
:101B20008F5F80937A021FBF80E591E00E94C2031D
:101B300060E080917C030E94D10280EC0E94BB0394
:101B400061E080917C030E94D1026AE070E080E055
:101B500090E00E94B30180E80E94F00A882319F007
:101B600084E691E043C08EE791E00E94970A60E02E
:101B70008AE20E94020B60E989E20E94020B62E0A5
:101B800088E20E94020B8CE991E00E94970A10E320
:101B900060E0812F0E94020B60E080E1810F0E94D3
:101BA000020B60E080E2810F0E94020B1F5F1E3378
:101BB00079F760E080E60E94020B60E080E70E9417
:101BC000020B63E08BE20E94020B44E064E680E6D5
:101BD0000E94BC0A40E060E680E70E94BC0A80E008
:101BE0000E94F00A882339F081EB91E00E94970A65
:101BF0008FE392E006C08CEC91E00E94970A8AEE97
:101C000091E00E94300A60E082E10E94340361E0CA
:101C100089E00E94340384EF91E00E94970A0E94B9
:101C20003E0A8BE092E00E94300A84E690E0A0E059
:101C3000B0E080936D0390936E03A0936F03B09315
:101C4000700381E080937B021092A40210929702AD
:101C500084E393E090939602809395028AEA90E061
:101C6000909394028093930280E090E0A0E0B0E82B
:101C70008093A5029093A602A093A702B093A80216
:101C800030E0232E30E0332E0E948A0C837009F45A
:101C90005BC01D860E948A0C83FF84C134E085FFEF
:101CA000F1C028E0982F991F9927991F9295907F4E
:101CB0008370832B822B982B90FFE6C0AE014F5F81
:101CC0005F4F7A018E01035F1F4F2BE733E046E73A
:101CD00053E0BE01675F7F4F80E90E9488068985D7
:101CE0009A85AB85BC858093770390937803A09306
:101CF0007903B0937A0389859A85AB85BC85823157
:101D0000E3E09E07A105B10509F4CFC08331F3E0FC
:101D10009F07A105B10509F43AC181159140A105BC
:101D2000B10591F48D8190E0982F88272E81822B28
:101D3000092E000CAA0BBB0B8093A5029093A60260
:101D4000A093A702B093A8028091A5029091A60249
:101D5000A091A702B091A802BC01CD0160597140C9
:101D6000810991090E9417159B01AC0160E070E0A8
:101D700086E194E40E946D140E9439142BED3FE03B
:101D800049EC50E40E946D1420E030E044EB53E451
:101D90000E94FB1560933B0370933C0380933D03CB
:101DA00090933E036091930270919402072E000C71
:101DB000880B990B0E9417152B013C01609195022D
:101DC00070919602072E000C880B990B0E94171534
:101DD0006B017C010E94630CBC01990F880B990B6D
:101DE0000E941715A70196010E94CC1320E030E055
:101DF00044E353E40E94FB154B015C01A7019601EB
:101E0000C301B2010E94CC139B01AC01C501B40116
:101E10000E946D1420E030E044EB52E40E94CC13A9
:101E20006B017C0160933F037093400380934103F7
:101E30009093420320E030E04CED52EC0E94681495
:101E400087FD0BC020E030E04CED52E4C701B60145
:101E50000E94EE1518160CF0A9C0E0913403F0E0D2
:101E6000CF01880F991FE80FF91FE15FFC4F8081B8
:101E700086FF9CC021E0209392028F7B808386E4C2
:101E800092E0C2C320E00ECF91FF8EC0CE0101963A
:101E90007C018E01035F1F4F2BE733E046E753E0E1
:101EA000BE01675F7F4F84E918CF8981817080937D
:101EB000A4026A8170E0762F66278B81682B072E3B
:101EC000000C880B990B0E94171520E030E048ECBD
:101ED00052E40E946D144B015C016093A002709368
:101EE000A1028093A2029093A3026C8170E0762FEE
:101EF00066278D81682B072E000C880B990B0E949A
:101F0000171520E030E048EC52E40E946D146B019C
:101F10007C0160939C0270939D0280939E0290933B
:101F20009F026E8170E0762F66278F81682B072EC7
:101F3000000C880B990B0E94171520E030E048EC4C
:101F400052E40E946D1460939802709399028093FA
:101F50009A0290939B0228852093970280924303D4
:101F600090924403A0924503B0924603C092470367
:101F7000D0924803E0924903F0924A0360934B03E6
:101F800070934C0380934D0390934E03DDCE8B8171
:101F900090E0982F88272C81822B90939602809333
:101FA0009502D2CE30E07BCE1D86A5CE20E030E07B
:101FB00040EB51ECC701B6010E94EE151816C4F4AF
:101FC00020E030E040EB51E4C701B6010E94681404
:101FD00087FF0EC08091340390E0FC01EE0FFF1FDD
:101FE0008E0F9F1FFC01E15FFC4F808186FF08C3BD
:101FF000C0903F03D0904003E0904103F090420333
:1020000080903B0390903C03A0903D03B0903E0332
:1020100020E030E040EA50E4C501B4010E94CC1356
:102020009B01AC01C701B6010E94EE1587FD11C0EE
:1020300020E030E040EA50E4C501B4010E94CD1335
:102040009B01AC0111E0C701B6010E94681418168B
:102050000CF410E01093910280918F02112311F083
:10206000826001C08D7F80938F0290919202809157
:102070008F02992311F0846001C08B7F80938F02BF
:102080008091A40281118EC1809175038823E1F0B3
:10209000109275030E94ED016093710370937203B7
:1020A000809373039093740310924F031092500324
:1020B0001092510310925203109253031092540342
:1020C0001092550310925603C0905703D0905803B6
:1020D000E0905903F0905A0320E030E0A901C701D5
:1020E000B6010E946814882309F1E0916103F09120
:1020F0006203A0915F03B09160032D913D914D91DA
:102100005C9160817181828193810E94CC13A701CF
:1021100096010E94EE1518164CF480916903909177
:102120006A03A0916B03B0916C0331C0C0905B0354
:10213000D0905C03E0905D03F0905E0320E030E01F
:10214000A901C701B6010E946814882399F1E091A2
:102150005F03F0916003A0916103B09162032D9140
:102160003D914D915C9160817181828193810E944A
:10217000CC13A70196010E94EE151816DCF480918D
:10218000650390916603A0916703B0916803E091A5
:102190006303F091640380839183A283B3830E94DD
:1021A000ED016093710370937203809373039093B6
:1021B000740315C10E94ED01C0907103D0907203A9
:1021C000E0907303F09074034B015C018C189D0840
:1021D000AE08BF0880916D0390916E03A0916F03CC
:1021E000B091700388169906AA06BB0608F4F7C0DA
:1021F0000E94ED01609371037093720380937303E7
:1022000090937403E0916103F0916203A0915F03E6
:10221000B09160032D913D914D915C9160817181F0
:10222000828193810E94CC136B017C0180915303C6
:1022300090915403A0915503B09156038E879F87C8
:10224000A88BB98BC501B4010E9415152B013C0167
:102250002E853F8548895989C701B6010E94CD1353
:1022600020E030E040E05FE30E94FB15A301920113
:102270000E94FB1520E030E04AE754E40E946D1410
:1022800020914F03309150034091510350915203DC
:102290000E94CD134B015C0160934F037093500378
:1022A0008093510390935203C0925303D0925403EE
:1022B000E0925503F092560320914303309144037A
:1022C0004091450350914603C701B6010E94FB159A
:1022D0006A8B7B8B8C8B9D8B2091470330914803BD
:1022E0004091490350914A03C501B4010E94FB1576
:1022F0009B01AC016A897B898C899D890E94CD13E1
:102300004B015C012E853F8548895989C701B6017B
:102310000E94CC13A30192010E946D1420E030E0D2
:102320004AE754E40E946D1420914B0330914C0312
:1023300040914D0350914E030E94FB159B01AC014F
:10234000C501B4010E94CD133B014C01C090630351
:10235000D0906403A0906503B0906603E09067039B
:10236000F09068039501A7010E94681487FD12C0D0
:10237000A0906903B0906A03E0906B03F0906C0347
:102380009501A701B301C4010E94EE15181614F0BF
:1023900053017401C501D701F60180839183A283A3
:1023A000B3831DC02091970244EF51E02403B00194
:1023B000259F700D1124072E000C880B990B0E948D
:1023C000171520E030E048EC52E40E946D14609351
:1023D0003703709338038093390390933A036091E5
:1023E0003703709138038091390390913A0310912B
:1023F00034031C3008F03CC020E030E845EC54E4E5
:102400000E94CD130E94DF1440913503A8E8B0E08C
:10241000A41BB10947FDB395AD01440F551F440FEF
:10242000551F641775078CF040913603E8E5F2E01C
:10243000E41BF10947FDF395AF01440F551F440F0D
:10244000551F641775070CF4AB01CA010297880F7A
:10245000991F4FB7F894212F30E0F901EE0FFF1FBD
:102460002E0F3F1FF901E15FFC4F928381834FBF25
:102470000E94ED01C0908B02D0908C02E0908D0202
:10248000F0908E02DC01CB018C199D09AE09BF09C9
:10249000893E9340A105B10508F4A1C02FE832E0C0
:1024A00042E060E173E080E090E00E94600529E88E
:1024B00032E042E061E173E080E090E00E9460057C
:1024C00021E832E048E060E173E080E090E00E94C3
:1024D00060052DE732E044E060E173E080E090E0E9
:1024E0000E9460058CE192E00E94970AC090A502CC
:1024F000D090A602E090A702F090A802F7FE0CC0D0
:102500008DE20E94660B66277727CB016C197D0947
:102510008E099F094AE003C04AE0C701B6010E9444
:10252000250B82E192E00E94970A0E94630C0E94B0
:10253000710B87E192E00E94970A8091910290E0EE
:102540000E94710B80E292E00E94970A60913B0327
:1025500070913C0380913D0390913E030E949F0B3C
:1025600086E292E00E94970A60913F0370914003D7
:1025700080914103909142030E949F0B8CE292E074
:102580000E94970A60913703709138038091390354
:1025900090913A030E949F0B82E392E00E94970A77
:1025A0008091A40290E00E94710B89E392E00E9466
:1025B000970A60917C0270E080E090E04AE00E941F
:1025C000250B89E991E00E94180A0E94ED016093B1
:1025D0008B0270938C0280938D0290938E020E94E6
:1025E000ED0128EE33E040E050E00E94AA13209372
:1025F0007C022114310409F447CB0E94000040CB37
:102600000E943E0A85E592E00E94300AF1CCCF920A
:10261000DF92EF92FF921092C2021092C10238EE46
:10262000C32E33E0D32EE12CF12CC092C302D09202
:10263000C402E092C502F092C60280E291E090935B
:10264000C0028093BF028FEF9FEF9093CC028093E4
:10265000CB0210927F0380E893E090937E038093F7
:102660007D038AE080937C0361E00E94340361E093
:1026700080917C030E94D1028FE393E090936003EA
:1026800080935F038BE393E09093620380936103F5
:1026900087E393E0909364038093630380E090E08A
:1026A000A8ECB2EC8093650390936603A093670354
:1026B000B093680380E090E0A8ECB2E480936903F3
:1026C00090936A03A0936B03B0936C0380E090E057
:1026D000A0E2B1E48093430390934403A0934503A5
:1026E000B093460310924703109248031092490397
:1026F00010924A0310924B0310924C0310924D0318
:1027000010924E03C0926D03D0926E03E0926F035D
:10271000F0927003809133038C30A0F491E0980F15
:10272000909333038093340390E0FC01EE0FFF1F7E
:102730008E0F9F1FFC01E15FFC4F88EB9BE09283B3
:10274000818303C08FEF80933403FF90EF90DF907D
:10275000CF900895A1E21A2EAA1BBB1BFD010DC04C
:10276000AA1FBB1FEE1FFF1FA217B307E407F50741
:1027700020F0A21BB30BE40BF50B661F771F881F1D
:10278000991F1A9469F760957095809590959B01B3
:10279000AC01BD01CF0108955058BB27AA270E9464
:1027A000E4130C94B4150E94A61538F00E94AD15E0
:1027B00020F039F49F3F19F426F40C947C150EF4A4
:1027C000E095E7FB0C947615E92F0E94C51558F3A8
:1027D000BA17620773078407950720F079F4A6F506
:1027E0000C94E7150EF4E0950B2EBA2FA02D0B01DB
:1027F000B90190010C01CA01A0011124FF27591B46
:1028000099F0593F50F4503E68F11A16F040A22F4B
:10281000232F342F4427585FF3CF469537952795BC
:10282000A795F0405395C9F77EF41F16BA0B620BBB
:10283000730B840BBAF09150A1F0FF0FBB1F661F02
:10284000771F881FC2F70EC0BA0F621F731F841F45
:1028500048F4879577956795B795F7959E3F08F06B
:10286000B0CF9395880F08F09927EE0F979587952D
:102870000895DF93DD27B92FBF7740E85FE3161691
:10288000170648075B0718F4D92F0E94F3159F938A
:102890008F937F936F930E946816EAECF0E00E949A
:1028A0007F150E94B4152F913F914F915F910E9427
:1028B0000E16DD2351F09058A2EA2AED3FE049ECD4
:1028C0005FE3D0785D270E94E413DF910C94B41588
:1028D0000E94521508F481E008950E9481140C941E
:1028E000B4150E94AD1558F00E94A61540F029F4C9
:1028F0005F3F29F00C94761551110C94E8150C9457
:102900007C150E94C51568F39923B1F3552391F303
:10291000951B550BBB27AA2762177307840738F04E
:102920009F5F5F4F220F331F441FAA1FA9F335D0AB
:102930000E2E3AF0E0E832D091505040E695001C5F
:10294000CAF72BD0FE2F29D0660F771F881FBB1F19
:10295000261737074807AB07B0E809F0BB0B802DF7
:10296000BF01FF2793585F4F3AF09E3F510578F023
:102970000C9476150C94E8155F3FE4F3983ED4F37D
:10298000869577956795B795F7959F5FC9F7880FF7
:10299000911D9695879597F90895E1E0660F771F49
:1029A000881FBB1F621773078407BA0720F0621BDA
:1029B000730B840BBA0BEE1F88F7E09508950E9405
:1029C000E6146894B1110C94E81508950E94CD1591
:1029D00088F09F5798F0B92F9927B751B0F0E1F0E0
:1029E000660F771F881F991F1AF0BA95C9F714C090
:1029F000B13091F00E94E715B1E008950C94E7150D
:102A0000672F782F8827B85F39F0B93FCCF38695C8
:102A100077956795B395D9F73EF490958095709525
:102A200061957F4F8F4F9F4F0895E89409C097FBA2
:102A30003EF490958095709561957F4F8F4F9F4F95
:102A40009923A9F0F92F96E9BB279395F6958795D9
:102A500077956795B795F111F8CFFAF4BB0F11F49C
:102A600060FF1BC06F5F7F4F8F4F9F4F16C0882343
:102A700011F096E911C0772321F09EE8872F762F79
:102A800005C0662371F096E8862F70E060E02AF0BA
:102A90009A95660F771F881FDAF7880F96958795A6
:102AA00097F90895990F0008550FAA0BE0E8FEEF7B
:102AB00016161706E807F907C0F012161306E40702
:102AC000F50798F0621B730B840B950B39F40A26FB
:102AD00061F0232B242B252B21F408950A2609F4D9
:102AE000A140A6958FEF811D811D089597F99F67DD
:102AF00080E870E060E008959FEF80EC0895DF9338
:102B0000CF931F930F93FF92EF92DF927B018C0183
:102B1000689406C0DA2EEF010E940E16FE01E894BA
:102B2000A5912591359145915591A6F3EF010E940C
:102B3000E413FE019701A801DA9469F7DF90EF90A2
:102B4000FF900F911F91CF91DF91089500240A9477
:102B50001616170618060906089500240A94121678
:102B60001306140605060895092E0394000C11F4AB
:102B7000882352F0BB0F40F4BF2B11F460FF04C058
:102B80006F5F7F4F8F4F9F4F089557FD9058440FB1
:102B9000551F59F05F3F71F04795880F97FB991FBC
:102BA00061F09F3F79F08795089512161306140679
:102BB000551FF2CF4695F1DF08C016161706180606
:102BC000991FF1CF86957105610508940895E894E1
:102BD000BB2766277727CB0197F908950E945215E6
:102BE00008F48FEF08959B01AC0160E070E080E88D
:102BF0009FE30C946D140E940E160C94B4150E9461
:102C0000A61538F00E94AD1520F0952311F00C9414
:102C100076150C947C1511240C94E8150E94C515AA
:102C200070F3959FC1F3950F50E0551F629FF0011F
:102C3000729FBB27F00DB11D639FAA27F00DB11D38
:102C4000AA1F649F6627B00DA11D661F829F2227C1
:102C5000B00DA11D621F739FB00DA11D621F839F48
:102C6000A00D611D221F749F3327A00D611D231F1E
:102C7000849F600D211D822F762F6A2F11249F576C
:102C800050409AF0F1F088234AF0EE0FFF1FBB1F6F
:102C9000661F771F881F91505040A9F79E3F51052E
:102CA00080F00C9476150C94E8155F3FE4F3983EA1
:102CB000D4F3869577956795B795F795E7959F5FD8
:102CC000C1F7FE2B880F911D9695879597F908956A
:102CD0009B01AC010C94FB150E945215880B990BBB
:102CE0000895991B79E004C0991F961708F0961B68
:102CF000881F7A95C9F780950895EE0FFF1F0590FC
:102D0000F491E02D099481E090E0F8940C948816F9
:042D1000F894FFCF65
:102D1400FFFFFFFF00E100000000000000C1808110
:102D2400000000040810304050041040000000006F
:102D34004F01F9017E0265017001A6028202496E0B
:102D4400697469616C697A696E6720776865656C16
:102D540020726F74617465723A0A00496E6974690D
:102D6400616C697A696E672043414E206275732EE7
:102D74002E2E0900456E7465722073657474696E35
:102D840067206D6F6465206661696C0D0A00456E8D
:102D94007465722073657474696E67206D6F646501
:102DA4002073756363657373200D0A007365742063
:102DB40072617465207375636365737321210D0AF1
:102DC40000456E746572204E6F726D616C204D6F9C
:102DD4006465204661696C21210D0A00456E7465A5
:102DE40072204E6F726D616C204D6F646520537557
:102DF400636365737321210D0A005B535543434597
:102E040053535D00496E697469616C697A696E67D0
:102E140020736572766F2E2E2E09005B444F4E454B
:102E24005D0020613A200020706F7320723A200008
:102E34002053503A20002050563A20002043563A5E
:102E4400200020412F4D3A20002048423A20005BC8
:102E54004641494C5D00536572766F206465746128
:102E64006368656400536572766F2061747461638E
:102E7400686564006E616E00696E66006F76660058
:00000001FF
